{
  "contractName": "Swap",
  "abi": [
    {
      "inputs": [
        {
          "internalType": "contract SporeToken",
          "name": "_token",
          "type": "address"
        },
        {
          "internalType": "address payable",
          "name": "_wallet",
          "type": "address"
        },
        {
          "internalType": "uint256",
          "name": "_rate",
          "type": "uint256"
        },
        {
          "internalType": "uint256",
          "name": "_startTime",
          "type": "uint256"
        },
        {
          "internalType": "uint256",
          "name": "_endTime",
          "type": "uint256"
        }
      ],
      "stateMutability": "nonpayable",
      "type": "constructor"
    },
    {
      "anonymous": false,
      "inputs": [
        {
          "indexed": true,
          "internalType": "address",
          "name": "purchaser",
          "type": "address"
        },
        {
          "indexed": true,
          "internalType": "address",
          "name": "beneficiary",
          "type": "address"
        },
        {
          "indexed": false,
          "internalType": "uint256",
          "name": "value",
          "type": "uint256"
        },
        {
          "indexed": false,
          "internalType": "uint256",
          "name": "amount",
          "type": "uint256"
        }
      ],
      "name": "TokenPurchase",
      "type": "event"
    },
    {
      "inputs": [],
      "name": "endTime",
      "outputs": [
        {
          "internalType": "uint256",
          "name": "",
          "type": "uint256"
        }
      ],
      "stateMutability": "view",
      "type": "function"
    },
    {
      "inputs": [],
      "name": "rate",
      "outputs": [
        {
          "internalType": "uint256",
          "name": "",
          "type": "uint256"
        }
      ],
      "stateMutability": "view",
      "type": "function"
    },
    {
      "inputs": [],
      "name": "startTime",
      "outputs": [
        {
          "internalType": "uint256",
          "name": "",
          "type": "uint256"
        }
      ],
      "stateMutability": "view",
      "type": "function"
    },
    {
      "inputs": [],
      "name": "token",
      "outputs": [
        {
          "internalType": "contract SporeToken",
          "name": "",
          "type": "address"
        }
      ],
      "stateMutability": "view",
      "type": "function"
    },
    {
      "inputs": [],
      "name": "wallet",
      "outputs": [
        {
          "internalType": "address payable",
          "name": "",
          "type": "address"
        }
      ],
      "stateMutability": "view",
      "type": "function"
    },
    {
      "inputs": [],
      "name": "weiRaised",
      "outputs": [
        {
          "internalType": "uint256",
          "name": "",
          "type": "uint256"
        }
      ],
      "stateMutability": "view",
      "type": "function"
    },
    {
      "inputs": [
        {
          "internalType": "address",
          "name": "_beneficiary",
          "type": "address"
        }
      ],
      "name": "buyTokens",
      "outputs": [],
      "stateMutability": "payable",
      "type": "function"
    }
  ],
  "bytecode": "0x608060405234801561001057600080fd5b506040516107f53803806107f5833981810160405260a081101561003357600080fd5b810190808051906020019092919080519060200190929190805190602001909291908051906020019092919080519060200190929190505050600073ffffffffffffffffffffffffffffffffffffffff168573ffffffffffffffffffffffffffffffffffffffff1614156100a657600080fd5b600073ffffffffffffffffffffffffffffffffffffffff168473ffffffffffffffffffffffffffffffffffffffff1614156100e057600080fd5b600083116100ed57600080fd5b428210156100fa57600080fd5b81811161010657600080fd5b846000806101000a81548173ffffffffffffffffffffffffffffffffffffffff021916908373ffffffffffffffffffffffffffffffffffffffff16021790555083600160006101000a81548173ffffffffffffffffffffffffffffffffffffffff021916908373ffffffffffffffffffffffffffffffffffffffff1602179055508260028190555081600481905550806005819055505050505050610645806101b06000396000f3fe6080604052600436106100705760003560e01c8063521eb2731161004e578063521eb273146100f657806378e979251461014d578063ec8ac4d814610178578063fc0c546a146101bc57610070565b80632c4e722e146100755780633197cbb6146100a05780634042b66f146100cb575b600080fd5b34801561008157600080fd5b5061008a610213565b6040518082815260200191505060405180910390f35b3480156100ac57600080fd5b506100b5610219565b6040518082815260200191505060405180910390f35b3480156100d757600080fd5b506100e061021f565b6040518082815260200191505060405180910390f35b34801561010257600080fd5b5061010b610225565b604051808273ffffffffffffffffffffffffffffffffffffffff1673ffffffffffffffffffffffffffffffffffffffff16815260200191505060405180910390f35b34801561015957600080fd5b5061016261024b565b6040518082815260200191505060405180910390f35b6101ba6004803603602081101561018e57600080fd5b81019080803573ffffffffffffffffffffffffffffffffffffffff169060200190929190505050610251565b005b3480156101c857600080fd5b506101d1610450565b604051808273ffffffffffffffffffffffffffffffffffffffff1673ffffffffffffffffffffffffffffffffffffffff16815260200191505060405180910390f35b60025481565b60055481565b60035481565b600160009054906101000a900473ffffffffffffffffffffffffffffffffffffffff1681565b60045481565b80600073ffffffffffffffffffffffffffffffffffffffff168173ffffffffffffffffffffffffffffffffffffffff16141561028c57600080fd5b600034141561029a57600080fd5b6004544210156102a957600080fd5b6005544211156102b857600080fd5b60003490506102d28160035461047590919063ffffffff16565b60038190555060006102ef600254836104fd90919063ffffffff16565b90506000809054906101000a900473ffffffffffffffffffffffffffffffffffffffff1673ffffffffffffffffffffffffffffffffffffffff1663a9059cbb85836040518363ffffffff1660e01b8152600401808373ffffffffffffffffffffffffffffffffffffffff1673ffffffffffffffffffffffffffffffffffffffff16815260200182815260200192505050602060405180830381600087803b15801561039957600080fd5b505af11580156103ad573d6000803e3d6000fd5b505050506040513d60208110156103c357600080fd5b8101908080519060200190929190505050508373ffffffffffffffffffffffffffffffffffffffff163373ffffffffffffffffffffffffffffffffffffffff167f623b3804fa71d67900d064613da8f94b9617215ee90799290593e1745087ad188484604051808381526020018281526020019250505060405180910390a361044a610583565b50505050565b6000809054906101000a900473ffffffffffffffffffffffffffffffffffffffff1681565b6000808284019050838110156104f3576040517f08c379a000000000000000000000000000000000000000000000000000000000815260040180806020018281038252601b8152602001807f536166654d6174683a206164646974696f6e206f766572666c6f77000000000081525060200191505060405180910390fd5b8091505092915050565b600080831415610510576000905061057d565b600082840290508284828161052157fe5b0414610578576040517f08c379a00000000000000000000000000000000000000000000000000000000081526004018080602001828103825260218152602001806105ef6021913960400191505060405180910390fd5b809150505b92915050565b600160009054906101000a900473ffffffffffffffffffffffffffffffffffffffff1673ffffffffffffffffffffffffffffffffffffffff166108fc349081150290604051600060405180830381858888f193505050501580156105eb573d6000803e3d6000fd5b5056fe536166654d6174683a206d756c7469706c69636174696f6e206f766572666c6f77a264697066735822122073bd95aa460330429875a374d55fad36bf33e191da78fa04068746daa48a8e9a64736f6c63430006020033",
  "source": "// SPDX-License-Identifier: GPL-3.0-or-later\npragma solidity >=0.6.0 <0.8.0;\n\nimport \"@openzeppelin/contracts/math/SafeMath.sol\";\nimport \"./SporeToken.sol\";\n\ncontract Swap {\n\n    using SafeMath for uint256;\n\n    SporeToken public token;\n    address payable public wallet;\n    uint256 public rate;\n    uint256 public weiRaised;\n    uint256 public startTime;\n    uint256 public endTime;\n\n    event TokenPurchase(address indexed purchaser, address indexed beneficiary, uint256 value, uint256 amount);\n\n    constructor(SporeToken _token, address payable _wallet, uint256 _rate, uint256 _startTime, uint256 _endTime) public {\n        require(address(_token) != address(0));\n        require(_wallet != address(0));\n        require(_rate > 0);\n        require(_startTime >= now);\n        require(_endTime > _startTime);\n\n        token = _token;\n        wallet = _wallet;\n        rate = _rate;\n        startTime = _startTime;\n        endTime = _endTime;\n    }\n\n    function buyTokens(address _beneficiary) public payable purchaseValid(_beneficiary) {\n        uint256 weiAmount = msg.value;\n\n        weiRaised = weiRaised.add(weiAmount);\n\n        // Calculate token amount\n        uint256 tokens = weiAmount.mul(rate);\n\n        // Transfer tokens to beneficiary\n        token.transfer(_beneficiary, tokens);\n        emit TokenPurchase(msg.sender, _beneficiary, weiAmount, tokens);\n\n        _forwardFunds();\n    }\n\n    modifier purchaseValid(address _beneficiary) {\n        require(_beneficiary != address(0));\n        require(msg.value != 0);\n        require(now >= startTime);\n        require(now <= endTime);\n        _;\n    }\n\n    function _forwardFunds() internal {\n        // Transfer ETH to the fund collection wallet\n        wallet.transfer(msg.value);\n    }\n}",
  "sourcePath": "/home/carlos/desarrollo/Spore-Exchange/contracts/Swap.sol",
  "compiler": {
    "name": "solc",
    "version": "0.6.2+commit.bacdbe57.Emscripten.clang"
  },
  "schemaVersion": "3.3.0",
  "updatedAt": "2020-11-03T00:33:22.287Z",
  "devdoc": {
    "methods": {}
  },
  "userdoc": {
    "methods": {}
  }
}